{
  "_format": "hh-sol-artifact-1",
  "contractName": "Create",
  "sourceName": "contracts/Election.sol",
  "abi": [
    {
      "inputs": [],
      "stateMutability": "nonpayable",
      "type": "constructor"
    },
    {
      "anonymous": false,
      "inputs": [
        {
          "indexed": true,
          "internalType": "uint256",
          "name": "candidateId",
          "type": "uint256"
        },
        {
          "indexed": false,
          "internalType": "address",
          "name": "_address",
          "type": "address"
        },
        {
          "indexed": false,
          "internalType": "string",
          "name": "age",
          "type": "string"
        },
        {
          "indexed": false,
          "internalType": "string",
          "name": "name",
          "type": "string"
        },
        {
          "indexed": false,
          "internalType": "string",
          "name": "image",
          "type": "string"
        },
        {
          "indexed": false,
          "internalType": "uint256",
          "name": "voterCount",
          "type": "uint256"
        },
        {
          "indexed": false,
          "internalType": "string",
          "name": "ipfs",
          "type": "string"
        }
      ],
      "name": "CandidateCreate",
      "type": "event"
    },
    {
      "anonymous": false,
      "inputs": [
        {
          "indexed": true,
          "internalType": "uint256",
          "name": "voter_voterid",
          "type": "uint256"
        },
        {
          "indexed": false,
          "internalType": "string",
          "name": "voter_name",
          "type": "string"
        },
        {
          "indexed": false,
          "internalType": "string",
          "name": "voter_id",
          "type": "string"
        },
        {
          "indexed": false,
          "internalType": "string",
          "name": "voter_image",
          "type": "string"
        },
        {
          "indexed": false,
          "internalType": "address",
          "name": "voter_address",
          "type": "address"
        },
        {
          "indexed": false,
          "internalType": "uint256",
          "name": "voter_allowed",
          "type": "uint256"
        },
        {
          "indexed": false,
          "internalType": "bool",
          "name": "voter_voted",
          "type": "bool"
        },
        {
          "indexed": false,
          "internalType": "uint256",
          "name": "voter_vote",
          "type": "uint256"
        },
        {
          "indexed": false,
          "internalType": "string",
          "name": "voter_ipfs",
          "type": "string"
        }
      ],
      "name": "VoterCreate",
      "type": "event"
    },
    {
      "inputs": [],
      "name": "_candidateId",
      "outputs": [
        {
          "internalType": "uint256",
          "name": "_value",
          "type": "uint256"
        }
      ],
      "stateMutability": "view",
      "type": "function"
    },
    {
      "inputs": [],
      "name": "_voterId",
      "outputs": [
        {
          "internalType": "uint256",
          "name": "_value",
          "type": "uint256"
        }
      ],
      "stateMutability": "view",
      "type": "function"
    },
    {
      "inputs": [
        {
          "internalType": "uint256",
          "name": "",
          "type": "uint256"
        }
      ],
      "name": "candidateAddress",
      "outputs": [
        {
          "internalType": "address",
          "name": "",
          "type": "address"
        }
      ],
      "stateMutability": "view",
      "type": "function"
    },
    {
      "inputs": [
        {
          "internalType": "address",
          "name": "",
          "type": "address"
        }
      ],
      "name": "candidates",
      "outputs": [
        {
          "internalType": "uint256",
          "name": "candidateId",
          "type": "uint256"
        },
        {
          "internalType": "string",
          "name": "age",
          "type": "string"
        },
        {
          "internalType": "string",
          "name": "name",
          "type": "string"
        },
        {
          "internalType": "string",
          "name": "image",
          "type": "string"
        },
        {
          "internalType": "uint256",
          "name": "voterCount",
          "type": "uint256"
        },
        {
          "internalType": "address",
          "name": "_address",
          "type": "address"
        },
        {
          "internalType": "string",
          "name": "ipfs",
          "type": "string"
        }
      ],
      "stateMutability": "view",
      "type": "function"
    },
    {
      "inputs": [],
      "name": "getCandidate",
      "outputs": [
        {
          "internalType": "address[]",
          "name": "",
          "type": "address[]"
        }
      ],
      "stateMutability": "view",
      "type": "function"
    },
    {
      "inputs": [
        {
          "internalType": "address",
          "name": "_address",
          "type": "address"
        }
      ],
      "name": "getCandidateData",
      "outputs": [
        {
          "internalType": "string",
          "name": "",
          "type": "string"
        },
        {
          "internalType": "string",
          "name": "",
          "type": "string"
        },
        {
          "internalType": "uint256",
          "name": "",
          "type": "uint256"
        },
        {
          "internalType": "string",
          "name": "",
          "type": "string"
        },
        {
          "internalType": "uint256",
          "name": "",
          "type": "uint256"
        },
        {
          "internalType": "string",
          "name": "",
          "type": "string"
        },
        {
          "internalType": "address",
          "name": "",
          "type": "address"
        }
      ],
      "stateMutability": "view",
      "type": "function"
    },
    {
      "inputs": [],
      "name": "getCandidateLength",
      "outputs": [
        {
          "internalType": "uint256",
          "name": "",
          "type": "uint256"
        }
      ],
      "stateMutability": "view",
      "type": "function"
    },
    {
      "inputs": [],
      "name": "getVotedVoterList",
      "outputs": [
        {
          "internalType": "address[]",
          "name": "",
          "type": "address[]"
        }
      ],
      "stateMutability": "view",
      "type": "function"
    },
    {
      "inputs": [
        {
          "internalType": "address",
          "name": "_address",
          "type": "address"
        }
      ],
      "name": "getVoterData",
      "outputs": [
        {
          "internalType": "uint256",
          "name": "",
          "type": "uint256"
        },
        {
          "internalType": "uint256",
          "name": "",
          "type": "uint256"
        },
        {
          "internalType": "string",
          "name": "",
          "type": "string"
        },
        {
          "internalType": "string",
          "name": "",
          "type": "string"
        },
        {
          "internalType": "address",
          "name": "",
          "type": "address"
        },
        {
          "internalType": "bool",
          "name": "",
          "type": "bool"
        },
        {
          "internalType": "string",
          "name": "",
          "type": "string"
        }
      ],
      "stateMutability": "view",
      "type": "function"
    },
    {
      "inputs": [],
      "name": "getVoterLength",
      "outputs": [
        {
          "internalType": "uint256",
          "name": "",
          "type": "uint256"
        }
      ],
      "stateMutability": "view",
      "type": "function"
    },
    {
      "inputs": [],
      "name": "getVoterList",
      "outputs": [
        {
          "internalType": "address[]",
          "name": "",
          "type": "address[]"
        }
      ],
      "stateMutability": "view",
      "type": "function"
    },
    {
      "inputs": [
        {
          "internalType": "address",
          "name": "_address",
          "type": "address"
        },
        {
          "internalType": "string",
          "name": "_age",
          "type": "string"
        },
        {
          "internalType": "string",
          "name": "_name",
          "type": "string"
        },
        {
          "internalType": "string",
          "name": "_image",
          "type": "string"
        },
        {
          "internalType": "string",
          "name": "_ipfs",
          "type": "string"
        }
      ],
      "name": "setCandidate",
      "outputs": [],
      "stateMutability": "nonpayable",
      "type": "function"
    },
    {
      "inputs": [
        {
          "internalType": "address",
          "name": "_candidateAddress",
          "type": "address"
        },
        {
          "internalType": "uint256",
          "name": "_candidateVoteId",
          "type": "uint256"
        }
      ],
      "name": "vote",
      "outputs": [],
      "stateMutability": "nonpayable",
      "type": "function"
    },
    {
      "inputs": [
        {
          "internalType": "uint256",
          "name": "",
          "type": "uint256"
        }
      ],
      "name": "votedVoters",
      "outputs": [
        {
          "internalType": "address",
          "name": "",
          "type": "address"
        }
      ],
      "stateMutability": "view",
      "type": "function"
    },
    {
      "inputs": [
        {
          "internalType": "address",
          "name": "_address",
          "type": "address"
        },
        {
          "internalType": "string",
          "name": "_name",
          "type": "string"
        },
        {
          "internalType": "string",
          "name": "_id",
          "type": "string"
        },
        {
          "internalType": "string",
          "name": "_image",
          "type": "string"
        },
        {
          "internalType": "string",
          "name": "_ipfs",
          "type": "string"
        }
      ],
      "name": "voterRight",
      "outputs": [],
      "stateMutability": "nonpayable",
      "type": "function"
    },
    {
      "inputs": [
        {
          "internalType": "address",
          "name": "",
          "type": "address"
        }
      ],
      "name": "voters",
      "outputs": [
        {
          "internalType": "uint256",
          "name": "voter_voterid",
          "type": "uint256"
        },
        {
          "internalType": "string",
          "name": "voter_name",
          "type": "string"
        },
        {
          "internalType": "string",
          "name": "voter_id",
          "type": "string"
        },
        {
          "internalType": "string",
          "name": "voter_image",
          "type": "string"
        },
        {
          "internalType": "address",
          "name": "voter_address",
          "type": "address"
        },
        {
          "internalType": "uint256",
          "name": "voter_allowed",
          "type": "uint256"
        },
        {
          "internalType": "bool",
          "name": "voter_voted",
          "type": "bool"
        },
        {
          "internalType": "uint256",
          "name": "voter_vote",
          "type": "uint256"
        },
        {
          "internalType": "string",
          "name": "voter_ipfs",
          "type": "string"
        }
      ],
      "stateMutability": "view",
      "type": "function"
    },
    {
      "inputs": [
        {
          "internalType": "uint256",
          "name": "",
          "type": "uint256"
        }
      ],
      "name": "votersAddress",
      "outputs": [
        {
          "internalType": "address",
          "name": "",
          "type": "address"
        }
      ],
      "stateMutability": "view",
      "type": "function"
    },
    {
      "inputs": [],
      "name": "votingOrganizer",
      "outputs": [
        {
          "internalType": "address",
          "name": "",
          "type": "address"
        }
      ],
      "stateMutability": "view",
      "type": "function"
    }
  ],
  "bytecode": "0x608060405234801561001057600080fd5b5033600260006101000a81548173ffffffffffffffffffffffffffffffffffffffff021916908373ffffffffffffffffffffffffffffffffffffffff160217905550612862806100616000396000f3fe608060405234801561001057600080fd5b50600436106101165760003560e01c80638e945685116100a2578063b28d92ae11610071578063b28d92ae14610337578063b9be315214610355578063ba2a515e14610373578063c91ec7121461038f578063f7522a83146103ab57610116565b80638e9456851461028d5780638fb4cd80146102ab578063a3ec138d146102e1578063a73889671461031957610116565b80635cc48aa7116100e95780635cc48aa7146101cf5780635f74bbde146101ed57806370218b85146102095780637831ffb3146102275780638ab66a901461025757610116565b806305ad45a41461011b5780632a466ac7146101395780633a88251a1461016f57806343242daa1461019f575b600080fd5b6101236103c9565b6040516101309190611a6d565b60405180910390f35b610153600480360381019061014e9190611afa565b6103d6565b6040516101669796959493929190611bc6565b60405180910390f35b61018960048036038101906101849190611c7d565b61081d565b6040516101969190611caa565b60405180910390f35b6101b960048036038101906101b49190611c7d565b61085c565b6040516101c69190611caa565b60405180910390f35b6101d761089b565b6040516101e49190611caa565b60405180910390f35b61020760048036038101906102029190611cc5565b6108c1565b005b610211610a88565b60405161021e9190611dc3565b60405180910390f35b610241600480360381019061023c9190611c7d565b610b16565b60405161024e9190611caa565b60405180910390f35b610271600480360381019061026c9190611afa565b610b55565b6040516102849796959493929190611de5565b60405180910390f35b610295610dd7565b6040516102a29190611dc3565b60405180910390f35b6102c560048036038101906102c09190611afa565b610e65565b6040516102d89796959493929190611e8b565b60405180910390f35b6102fb60048036038101906102f69190611afa565b61122c565b60405161031099989796959493929190611f0f565b60405180910390f35b6103216114c7565b60405161032e9190611a6d565b60405180910390f35b61033f6114d3565b60405161034c9190611dc3565b60405180910390f35b61035d611561565b60405161036a9190611a6d565b60405180910390f35b61038d600480360381019061038891906120ed565b61156d565b005b6103a960048036038101906103a491906120ed565b6117e8565b005b6103b3611a23565b6040516103c09190611a6d565b60405180910390f35b6000600680549050905090565b60608060006060600060606000600460008973ffffffffffffffffffffffffffffffffffffffff1673ffffffffffffffffffffffffffffffffffffffff168152602001908152602001600020600101600460008a73ffffffffffffffffffffffffffffffffffffffff1673ffffffffffffffffffffffffffffffffffffffff168152602001908152602001600020600201600460008b73ffffffffffffffffffffffffffffffffffffffff1673ffffffffffffffffffffffffffffffffffffffff16815260200190815260200160002060000154600460008c73ffffffffffffffffffffffffffffffffffffffff1673ffffffffffffffffffffffffffffffffffffffff168152602001908152602001600020600301600460008d73ffffffffffffffffffffffffffffffffffffffff1673ffffffffffffffffffffffffffffffffffffffff16815260200190815260200160002060040154600460008e73ffffffffffffffffffffffffffffffffffffffff1673ffffffffffffffffffffffffffffffffffffffff168152602001908152602001600020600601600460008f73ffffffffffffffffffffffffffffffffffffffff1673ffffffffffffffffffffffffffffffffffffffff16815260200190815260200160002060050160009054906101000a900473ffffffffffffffffffffffffffffffffffffffff168680546105e090612207565b80601f016020809104026020016040519081016040528092919081815260200182805461060c90612207565b80156106595780601f1061062e57610100808354040283529160200191610659565b820191906000526020600020905b81548152906001019060200180831161063c57829003601f168201915b5050505050965085805461066c90612207565b80601f016020809104026020016040519081016040528092919081815260200182805461069890612207565b80156106e55780601f106106ba576101008083540402835291602001916106e5565b820191906000526020600020905b8154815290600101906020018083116106c857829003601f168201915b505050505095508380546106f890612207565b80601f016020809104026020016040519081016040528092919081815260200182805461072490612207565b80156107715780601f1061074657610100808354040283529160200191610771565b820191906000526020600020905b81548152906001019060200180831161075457829003601f168201915b5050505050935081805461078490612207565b80601f01602080910402602001604051908101604052809291908181526020018280546107b090612207565b80156107fd5780601f106107d2576101008083540402835291602001916107fd565b820191906000526020600020905b8154815290600101906020018083116107e057829003601f168201915b505050505091509650965096509650965096509650919395979092949650565b6003818154811061082d57600080fd5b906000526020600020016000915054906101000a900473ffffffffffffffffffffffffffffffffffffffff1681565b6006818154811061086c57600080fd5b906000526020600020016000915054906101000a900473ffffffffffffffffffffffffffffffffffffffff1681565b600260009054906101000a900473ffffffffffffffffffffffffffffffffffffffff1681565b6000600760003373ffffffffffffffffffffffffffffffffffffffff1673ffffffffffffffffffffffffffffffffffffffff16815260200190815260200160002090508060060160009054906101000a900460ff1615610956576040517f08c379a000000000000000000000000000000000000000000000000000000000815260040161094d90612284565b60405180910390fd5b600081600501540361099d576040517f08c379a0000000000000000000000000000000000000000000000000000000008152600401610994906122f0565b60405180910390fd5b60018160060160006101000a81548160ff0219169083151502179055508181600701819055506005339080600181540180825580915050600190039060005260206000200160009091909190916101000a81548173ffffffffffffffffffffffffffffffffffffffff021916908373ffffffffffffffffffffffffffffffffffffffff1602179055508060050154600460008573ffffffffffffffffffffffffffffffffffffffff1673ffffffffffffffffffffffffffffffffffffffff1681526020019081526020016000206004016000828254610a7c919061233f565b92505081905550505050565b60606003805480602002602001604051908101604052809291908181526020018280548015610b0c57602002820191906000526020600020905b8160009054906101000a900473ffffffffffffffffffffffffffffffffffffffff1673ffffffffffffffffffffffffffffffffffffffff1681526020019060010190808311610ac2575b5050505050905090565b60058181548110610b2657600080fd5b906000526020600020016000915054906101000a900473ffffffffffffffffffffffffffffffffffffffff1681565b6004602052806000526040600020600091509050806000015490806001018054610b7e90612207565b80601f0160208091040260200160405190810160405280929190818152602001828054610baa90612207565b8015610bf75780601f10610bcc57610100808354040283529160200191610bf7565b820191906000526020600020905b815481529060010190602001808311610bda57829003601f168201915b505050505090806002018054610c0c90612207565b80601f0160208091040260200160405190810160405280929190818152602001828054610c3890612207565b8015610c855780601f10610c5a57610100808354040283529160200191610c85565b820191906000526020600020905b815481529060010190602001808311610c6857829003601f168201915b505050505090806003018054610c9a90612207565b80601f0160208091040260200160405190810160405280929190818152602001828054610cc690612207565b8015610d135780601f10610ce857610100808354040283529160200191610d13565b820191906000526020600020905b815481529060010190602001808311610cf657829003601f168201915b5050505050908060040154908060050160009054906101000a900473ffffffffffffffffffffffffffffffffffffffff1690806006018054610d5490612207565b80601f0160208091040260200160405190810160405280929190818152602001828054610d8090612207565b8015610dcd5780601f10610da257610100808354040283529160200191610dcd565b820191906000526020600020905b815481529060010190602001808311610db057829003601f168201915b5050505050905087565b60606005805480602002602001604051908101604052809291908181526020018280548015610e5b57602002820191906000526020600020905b8160009054906101000a900473ffffffffffffffffffffffffffffffffffffffff1673ffffffffffffffffffffffffffffffffffffffff1681526020019060010190808311610e11575b5050505050905090565b6000806060806000806060600760008973ffffffffffffffffffffffffffffffffffffffff1673ffffffffffffffffffffffffffffffffffffffff16815260200190815260200160002060000154600760008a73ffffffffffffffffffffffffffffffffffffffff1673ffffffffffffffffffffffffffffffffffffffff16815260200190815260200160002060050154600760008b73ffffffffffffffffffffffffffffffffffffffff1673ffffffffffffffffffffffffffffffffffffffff168152602001908152602001600020600101600760008c73ffffffffffffffffffffffffffffffffffffffff1673ffffffffffffffffffffffffffffffffffffffff168152602001908152602001600020600301600760008d73ffffffffffffffffffffffffffffffffffffffff1673ffffffffffffffffffffffffffffffffffffffff16815260200190815260200160002060040160009054906101000a900473ffffffffffffffffffffffffffffffffffffffff16600760008e73ffffffffffffffffffffffffffffffffffffffff1673ffffffffffffffffffffffffffffffffffffffff16815260200190815260200160002060060160009054906101000a900460ff16600760008f73ffffffffffffffffffffffffffffffffffffffff1673ffffffffffffffffffffffffffffffffffffffff16815260200190815260200160002060080184805461107b90612207565b80601f01602080910402602001604051908101604052809291908181526020018280546110a790612207565b80156110f45780601f106110c9576101008083540402835291602001916110f4565b820191906000526020600020905b8154815290600101906020018083116110d757829003601f168201915b5050505050945083805461110790612207565b80601f016020809104026020016040519081016040528092919081815260200182805461113390612207565b80156111805780601f1061115557610100808354040283529160200191611180565b820191906000526020600020905b81548152906001019060200180831161116357829003601f168201915b5050505050935080805461119390612207565b80601f01602080910402602001604051908101604052809291908181526020018280546111bf90612207565b801561120c5780601f106111e15761010080835404028352916020019161120c565b820191906000526020600020905b8154815290600101906020018083116111ef57829003601f168201915b505050505090509650965096509650965096509650919395979092949650565b600760205280600052604060002060009150905080600001549080600101805461125590612207565b80601f016020809104026020016040519081016040528092919081815260200182805461128190612207565b80156112ce5780601f106112a3576101008083540402835291602001916112ce565b820191906000526020600020905b8154815290600101906020018083116112b157829003601f168201915b5050505050908060020180546112e390612207565b80601f016020809104026020016040519081016040528092919081815260200182805461130f90612207565b801561135c5780601f106113315761010080835404028352916020019161135c565b820191906000526020600020905b81548152906001019060200180831161133f57829003601f168201915b50505050509080600301805461137190612207565b80601f016020809104026020016040519081016040528092919081815260200182805461139d90612207565b80156113ea5780601f106113bf576101008083540402835291602001916113ea565b820191906000526020600020905b8154815290600101906020018083116113cd57829003601f168201915b5050505050908060040160009054906101000a900473ffffffffffffffffffffffffffffffffffffffff16908060050154908060060160009054906101000a900460ff169080600701549080600801805461144490612207565b80601f016020809104026020016040519081016040528092919081815260200182805461147090612207565b80156114bd5780601f10611492576101008083540402835291602001916114bd565b820191906000526020600020905b8154815290600101906020018083116114a057829003601f168201915b5050505050905089565b60018060000154905081565b6060600680548060200260200160405190810160405280929190818152602001828054801561155757602002820191906000526020600020905b8160009054906101000a900473ffffffffffffffffffffffffffffffffffffffff1673ffffffffffffffffffffffffffffffffffffffff168152602001906001019080831161150d575b5050505050905090565b60008060000154905081565b3373ffffffffffffffffffffffffffffffffffffffff16600260009054906101000a900473ffffffffffffffffffffffffffffffffffffffff1673ffffffffffffffffffffffffffffffffffffffff16146115fd576040517f08c379a00000000000000000000000000000000000000000000000000000000081526004016115f4906123e5565b60405180910390fd5b6116076000611a30565b60006116136000611a46565b90506000600760008873ffffffffffffffffffffffffffffffffffffffff1673ffffffffffffffffffffffffffffffffffffffff1681526020019081526020016000209050600081600501541461166957600080fd5b600181600501819055508581600101908161168491906125b1565b508381600301908161169691906125b1565b50868160040160006101000a81548173ffffffffffffffffffffffffffffffffffffffff021916908373ffffffffffffffffffffffffffffffffffffffff1602179055508181600001819055506103e8816007018190555060008160060160006101000a81548160ff0219169083151502179055508281600801908161171c91906125b1565b506006879080600181540180825580915050600190039060005260206000200160009091909190916101000a81548173ffffffffffffffffffffffffffffffffffffffff021916908373ffffffffffffffffffffffffffffffffffffffff160217905550817f54c60c67f7cd5748ee99128ac04e982d914309fcffedc27143efc39c88ca076a8787878b86600501548760060160009054906101000a900460ff1688600701548b6040516117d7989796959493929190612683565b60405180910390a250505050505050565b3373ffffffffffffffffffffffffffffffffffffffff16600260009054906101000a900473ffffffffffffffffffffffffffffffffffffffff1673ffffffffffffffffffffffffffffffffffffffff1614611878576040517f08c379a000000000000000000000000000000000000000000000000000000000815260040161186f9061278f565b60405180910390fd5b6118826001611a30565b600061188e6001611a46565b90506000600460008873ffffffffffffffffffffffffffffffffffffffff1673ffffffffffffffffffffffffffffffffffffffff1681526020019081526020016000209050868160050160006101000a81548173ffffffffffffffffffffffffffffffffffffffff021916908373ffffffffffffffffffffffffffffffffffffffff1602179055508581600101908161192791906125b1565b508481600201908161193991906125b1565b508181600001819055508381600301908161195491906125b1565b50600081600401819055508281600601908161197091906125b1565b506003879080600181540180825580915050600190039060005260206000200160009091909190916101000a81548173ffffffffffffffffffffffffffffffffffffffff021916908373ffffffffffffffffffffffffffffffffffffffff160217905550817ffb888ce8fc26034ca4f3c3c11577f80367a73cff9cc15d9a30a3b5211505b4ea88888888866004015489604051611a12969594939291906127af565b60405180910390a250505050505050565b6000600380549050905090565b6001816000016000828254019250508190555050565b600081600001549050919050565b6000819050919050565b611a6781611a54565b82525050565b6000602082019050611a826000830184611a5e565b92915050565b6000604051905090565b600080fd5b600080fd5b600073ffffffffffffffffffffffffffffffffffffffff82169050919050565b6000611ac782611a9c565b9050919050565b611ad781611abc565b8114611ae257600080fd5b50565b600081359050611af481611ace565b92915050565b600060208284031215611b1057611b0f611a92565b5b6000611b1e84828501611ae5565b91505092915050565b600081519050919050565b600082825260208201905092915050565b60005b83811015611b61578082015181840152602081019050611b46565b60008484015250505050565b6000601f19601f8301169050919050565b6000611b8982611b27565b611b938185611b32565b9350611ba3818560208601611b43565b611bac81611b6d565b840191505092915050565b611bc081611abc565b82525050565b600060e0820190508181036000830152611be0818a611b7e565b90508181036020830152611bf48189611b7e565b9050611c036040830188611a5e565b8181036060830152611c158187611b7e565b9050611c246080830186611a5e565b81810360a0830152611c368185611b7e565b9050611c4560c0830184611bb7565b98975050505050505050565b611c5a81611a54565b8114611c6557600080fd5b50565b600081359050611c7781611c51565b92915050565b600060208284031215611c9357611c92611a92565b5b6000611ca184828501611c68565b91505092915050565b6000602082019050611cbf6000830184611bb7565b92915050565b60008060408385031215611cdc57611cdb611a92565b5b6000611cea85828601611ae5565b9250506020611cfb85828601611c68565b9150509250929050565b600081519050919050565b600082825260208201905092915050565b6000819050602082019050919050565b611d3a81611abc565b82525050565b6000611d4c8383611d31565b60208301905092915050565b6000602082019050919050565b6000611d7082611d05565b611d7a8185611d10565b9350611d8583611d21565b8060005b83811015611db6578151611d9d8882611d40565b9750611da883611d58565b925050600181019050611d89565b5085935050505092915050565b60006020820190508181036000830152611ddd8184611d65565b905092915050565b600060e082019050611dfa600083018a611a5e565b8181036020830152611e0c8189611b7e565b90508181036040830152611e208188611b7e565b90508181036060830152611e348187611b7e565b9050611e436080830186611a5e565b611e5060a0830185611bb7565b81810360c0830152611e628184611b7e565b905098975050505050505050565b60008115159050919050565b611e8581611e70565b82525050565b600060e082019050611ea0600083018a611a5e565b611ead6020830189611a5e565b8181036040830152611ebf8188611b7e565b90508181036060830152611ed38187611b7e565b9050611ee26080830186611bb7565b611eef60a0830185611e7c565b81810360c0830152611f018184611b7e565b905098975050505050505050565b600061012082019050611f25600083018c611a5e565b8181036020830152611f37818b611b7e565b90508181036040830152611f4b818a611b7e565b90508181036060830152611f5f8189611b7e565b9050611f6e6080830188611bb7565b611f7b60a0830187611a5e565b611f8860c0830186611e7c565b611f9560e0830185611a5e565b818103610100830152611fa88184611b7e565b90509a9950505050505050505050565b600080fd5b600080fd5b7f4e487b7100000000000000000000000000000000000000000000000000000000600052604160045260246000fd5b611ffa82611b6d565b810181811067ffffffffffffffff8211171561201957612018611fc2565b5b80604052505050565b600061202c611a88565b90506120388282611ff1565b919050565b600067ffffffffffffffff82111561205857612057611fc2565b5b61206182611b6d565b9050602081019050919050565b82818337600083830152505050565b600061209061208b8461203d565b612022565b9050828152602081018484840111156120ac576120ab611fbd565b5b6120b784828561206e565b509392505050565b600082601f8301126120d4576120d3611fb8565b5b81356120e484826020860161207d565b91505092915050565b600080600080600060a0868803121561210957612108611a92565b5b600061211788828901611ae5565b955050602086013567ffffffffffffffff81111561213857612137611a97565b5b612144888289016120bf565b945050604086013567ffffffffffffffff81111561216557612164611a97565b5b612171888289016120bf565b935050606086013567ffffffffffffffff81111561219257612191611a97565b5b61219e888289016120bf565b925050608086013567ffffffffffffffff8111156121bf576121be611a97565b5b6121cb888289016120bf565b9150509295509295909350565b7f4e487b7100000000000000000000000000000000000000000000000000000000600052602260045260246000fd5b6000600282049050600182168061221f57607f821691505b602082108103612232576122316121d8565b5b50919050565b7f596f75206861766520616c726561647920766f74656400000000000000000000600082015250565b600061226e601683611b32565b915061227982612238565b602082019050919050565b6000602082019050818103600083015261229d81612261565b9050919050565b7f596f752068617665206e6f20726967687420746f20766f746500000000000000600082015250565b60006122da601983611b32565b91506122e5826122a4565b602082019050919050565b60006020820190508181036000830152612309816122cd565b9050919050565b7f4e487b7100000000000000000000000000000000000000000000000000000000600052601160045260246000fd5b600061234a82611a54565b915061235583611a54565b925082820190508082111561236d5761236c612310565b5b92915050565b7f6f6e6c7920766f74696e67206f7267616e697a65722063616e2072656769737460008201527f657220766f746572730000000000000000000000000000000000000000000000602082015250565b60006123cf602983611b32565b91506123da82612373565b604082019050919050565b600060208201905081810360008301526123fe816123c2565b9050919050565b60008190508160005260206000209050919050565b60006020601f8301049050919050565b600082821b905092915050565b6000600883026124677fffffffffffffffffffffffffffffffffffffffffffffffffffffffffffffffff8261242a565b612471868361242a565b95508019841693508086168417925050509392505050565b6000819050919050565b60006124ae6124a96124a484611a54565b612489565b611a54565b9050919050565b6000819050919050565b6124c883612493565b6124dc6124d4826124b5565b848454612437565b825550505050565b600090565b6124f16124e4565b6124fc8184846124bf565b505050565b5b81811015612520576125156000826124e9565b600181019050612502565b5050565b601f8211156125655761253681612405565b61253f8461241a565b8101602085101561254e578190505b61256261255a8561241a565b830182612501565b50505b505050565b600082821c905092915050565b60006125886000198460080261256a565b1980831691505092915050565b60006125a18383612577565b9150826002028217905092915050565b6125ba82611b27565b67ffffffffffffffff8111156125d3576125d2611fc2565b5b6125dd8254612207565b6125e8828285612524565b600060209050601f83116001811461261b5760008415612609578287015190505b6126138582612595565b86555061267b565b601f19841661262986612405565b60005b828110156126515784890151825560018201915060208501945060208101905061262c565b8683101561266e578489015161266a601f891682612577565b8355505b6001600288020188555050505b505050505050565b600061010082019050818103600083015261269e818b611b7e565b905081810360208301526126b2818a611b7e565b905081810360408301526126c68189611b7e565b90506126d56060830188611bb7565b6126e26080830187611a5e565b6126ef60a0830186611e7c565b6126fc60c0830185611a5e565b81810360e083015261270e8184611b7e565b90509998505050505050505050565b7f4f6e6c79204f7267616e697a65722063616e20617574686f72697a652063616e60008201527f6469646174652000000000000000000000000000000000000000000000000000602082015250565b6000612779602783611b32565b91506127848261271d565b604082019050919050565b600060208201905081810360008301526127a88161276c565b9050919050565b600060c0820190506127c46000830189611bb7565b81810360208301526127d68188611b7e565b905081810360408301526127ea8187611b7e565b905081810360608301526127fe8186611b7e565b905061280d6080830185611a5e565b81810360a083015261281f8184611b7e565b905097965050505050505056fea2646970667358221220b64454577102116cd433d4847c4eb4b54f7f92209d6e131298a6757b28ce83ed64736f6c63430008120033",
  "linkReferences": {},
  "deployedLinkReferences": {}
}