{
  "_format": "hh-sol-artifact-1",
  "contractName": "Create",
  "sourceName": "contracts/Election.sol",
  "abi": [
    {
      "inputs": [],
      "stateMutability": "nonpayable",
      "type": "constructor"
    },
    {
      "anonymous": false,
      "inputs": [
        {
          "indexed": true,
          "internalType": "uint256",
          "name": "candidateId",
          "type": "uint256"
        },
        {
          "indexed": false,
          "internalType": "address",
          "name": "_address",
          "type": "address"
        },
        {
          "indexed": false,
          "internalType": "string",
          "name": "age",
          "type": "string"
        },
        {
          "indexed": false,
          "internalType": "string",
          "name": "name",
          "type": "string"
        },
        {
          "indexed": false,
          "internalType": "string",
          "name": "image",
          "type": "string"
        },
        {
          "indexed": false,
          "internalType": "uint256",
          "name": "voterCount",
          "type": "uint256"
        },
        {
          "indexed": false,
          "internalType": "string",
          "name": "ipfs",
          "type": "string"
        }
      ],
      "name": "CandidateCreate",
      "type": "event"
    },
    {
      "anonymous": false,
      "inputs": [
        {
          "indexed": true,
          "internalType": "uint256",
          "name": "voter_voterid",
          "type": "uint256"
        },
        {
          "indexed": false,
          "internalType": "string",
          "name": "voter_name",
          "type": "string"
        },
        {
          "indexed": false,
          "internalType": "string",
          "name": "voter_image",
          "type": "string"
        },
        {
          "indexed": false,
          "internalType": "address",
          "name": "voter_address",
          "type": "address"
        },
        {
          "indexed": false,
          "internalType": "uint256",
          "name": "voter_allowed",
          "type": "uint256"
        },
        {
          "indexed": false,
          "internalType": "bool",
          "name": "voter_voted",
          "type": "bool"
        },
        {
          "indexed": false,
          "internalType": "uint256",
          "name": "voter_vote",
          "type": "uint256"
        },
        {
          "indexed": false,
          "internalType": "string",
          "name": "voter_ipfs",
          "type": "string"
        }
      ],
      "name": "VoterCreate",
      "type": "event"
    },
    {
      "inputs": [],
      "name": "_candidateId",
      "outputs": [
        {
          "internalType": "uint256",
          "name": "_value",
          "type": "uint256"
        }
      ],
      "stateMutability": "view",
      "type": "function"
    },
    {
      "inputs": [],
      "name": "_voterId",
      "outputs": [
        {
          "internalType": "uint256",
          "name": "_value",
          "type": "uint256"
        }
      ],
      "stateMutability": "view",
      "type": "function"
    },
    {
      "inputs": [
        {
          "internalType": "uint256",
          "name": "",
          "type": "uint256"
        }
      ],
      "name": "candidateAddress",
      "outputs": [
        {
          "internalType": "address",
          "name": "",
          "type": "address"
        }
      ],
      "stateMutability": "view",
      "type": "function"
    },
    {
      "inputs": [
        {
          "internalType": "address",
          "name": "",
          "type": "address"
        }
      ],
      "name": "candidates",
      "outputs": [
        {
          "internalType": "uint256",
          "name": "candidateId",
          "type": "uint256"
        },
        {
          "internalType": "string",
          "name": "age",
          "type": "string"
        },
        {
          "internalType": "string",
          "name": "name",
          "type": "string"
        },
        {
          "internalType": "string",
          "name": "image",
          "type": "string"
        },
        {
          "internalType": "uint256",
          "name": "voterCount",
          "type": "uint256"
        },
        {
          "internalType": "address",
          "name": "_address",
          "type": "address"
        },
        {
          "internalType": "string",
          "name": "ipfs",
          "type": "string"
        }
      ],
      "stateMutability": "view",
      "type": "function"
    },
    {
      "inputs": [],
      "name": "getCandidate",
      "outputs": [
        {
          "internalType": "address[]",
          "name": "",
          "type": "address[]"
        }
      ],
      "stateMutability": "view",
      "type": "function"
    },
    {
      "inputs": [
        {
          "internalType": "address",
          "name": "_address",
          "type": "address"
        }
      ],
      "name": "getCandidateData",
      "outputs": [
        {
          "internalType": "string",
          "name": "",
          "type": "string"
        },
        {
          "internalType": "string",
          "name": "",
          "type": "string"
        },
        {
          "internalType": "uint256",
          "name": "",
          "type": "uint256"
        },
        {
          "internalType": "string",
          "name": "",
          "type": "string"
        },
        {
          "internalType": "uint256",
          "name": "",
          "type": "uint256"
        },
        {
          "internalType": "string",
          "name": "",
          "type": "string"
        },
        {
          "internalType": "address",
          "name": "",
          "type": "address"
        }
      ],
      "stateMutability": "view",
      "type": "function"
    },
    {
      "inputs": [],
      "name": "getCandidateLength",
      "outputs": [
        {
          "internalType": "uint256",
          "name": "",
          "type": "uint256"
        }
      ],
      "stateMutability": "view",
      "type": "function"
    },
    {
      "inputs": [],
      "name": "getVotedVoterList",
      "outputs": [
        {
          "internalType": "address[]",
          "name": "",
          "type": "address[]"
        }
      ],
      "stateMutability": "view",
      "type": "function"
    },
    {
      "inputs": [
        {
          "internalType": "address",
          "name": "_address",
          "type": "address"
        }
      ],
      "name": "getVoterData",
      "outputs": [
        {
          "internalType": "uint256",
          "name": "",
          "type": "uint256"
        },
        {
          "internalType": "uint256",
          "name": "",
          "type": "uint256"
        },
        {
          "internalType": "string",
          "name": "",
          "type": "string"
        },
        {
          "internalType": "string",
          "name": "",
          "type": "string"
        },
        {
          "internalType": "address",
          "name": "",
          "type": "address"
        },
        {
          "internalType": "bool",
          "name": "",
          "type": "bool"
        },
        {
          "internalType": "string",
          "name": "",
          "type": "string"
        }
      ],
      "stateMutability": "view",
      "type": "function"
    },
    {
      "inputs": [],
      "name": "getVoterLength",
      "outputs": [
        {
          "internalType": "uint256",
          "name": "",
          "type": "uint256"
        }
      ],
      "stateMutability": "view",
      "type": "function"
    },
    {
      "inputs": [],
      "name": "getVoterList",
      "outputs": [
        {
          "internalType": "address[]",
          "name": "",
          "type": "address[]"
        }
      ],
      "stateMutability": "view",
      "type": "function"
    },
    {
      "inputs": [
        {
          "internalType": "address",
          "name": "_address",
          "type": "address"
        },
        {
          "internalType": "string",
          "name": "_age",
          "type": "string"
        },
        {
          "internalType": "string",
          "name": "_name",
          "type": "string"
        },
        {
          "internalType": "string",
          "name": "_image",
          "type": "string"
        },
        {
          "internalType": "string",
          "name": "_ipfs",
          "type": "string"
        }
      ],
      "name": "setCandidate",
      "outputs": [],
      "stateMutability": "nonpayable",
      "type": "function"
    },
    {
      "inputs": [
        {
          "internalType": "address",
          "name": "_candidateAddress",
          "type": "address"
        },
        {
          "internalType": "uint256",
          "name": "_candidateVoteId",
          "type": "uint256"
        }
      ],
      "name": "vote",
      "outputs": [],
      "stateMutability": "nonpayable",
      "type": "function"
    },
    {
      "inputs": [
        {
          "internalType": "uint256",
          "name": "",
          "type": "uint256"
        }
      ],
      "name": "votedVoters",
      "outputs": [
        {
          "internalType": "address",
          "name": "",
          "type": "address"
        }
      ],
      "stateMutability": "view",
      "type": "function"
    },
    {
      "inputs": [
        {
          "internalType": "address",
          "name": "_address",
          "type": "address"
        },
        {
          "internalType": "string",
          "name": "_name",
          "type": "string"
        },
        {
          "internalType": "string",
          "name": "_image",
          "type": "string"
        },
        {
          "internalType": "string",
          "name": "_ipfs",
          "type": "string"
        }
      ],
      "name": "voterRight",
      "outputs": [],
      "stateMutability": "nonpayable",
      "type": "function"
    },
    {
      "inputs": [
        {
          "internalType": "address",
          "name": "",
          "type": "address"
        }
      ],
      "name": "voters",
      "outputs": [
        {
          "internalType": "uint256",
          "name": "voter_voterid",
          "type": "uint256"
        },
        {
          "internalType": "string",
          "name": "voter_name",
          "type": "string"
        },
        {
          "internalType": "string",
          "name": "voter_image",
          "type": "string"
        },
        {
          "internalType": "address",
          "name": "voter_address",
          "type": "address"
        },
        {
          "internalType": "uint256",
          "name": "voter_allowed",
          "type": "uint256"
        },
        {
          "internalType": "bool",
          "name": "voter_voted",
          "type": "bool"
        },
        {
          "internalType": "uint256",
          "name": "voter_vote",
          "type": "uint256"
        },
        {
          "internalType": "string",
          "name": "voter_ipfs",
          "type": "string"
        }
      ],
      "stateMutability": "view",
      "type": "function"
    },
    {
      "inputs": [
        {
          "internalType": "uint256",
          "name": "",
          "type": "uint256"
        }
      ],
      "name": "votersAddress",
      "outputs": [
        {
          "internalType": "address",
          "name": "",
          "type": "address"
        }
      ],
      "stateMutability": "view",
      "type": "function"
    },
    {
      "inputs": [],
      "name": "votingOrganizer",
      "outputs": [
        {
          "internalType": "address",
          "name": "",
          "type": "address"
        }
      ],
      "stateMutability": "view",
      "type": "function"
    }
  ],
  "bytecode": "0x608060405234801561001057600080fd5b5033600260006101000a81548173ffffffffffffffffffffffffffffffffffffffff021916908373ffffffffffffffffffffffffffffffffffffffff16021790555061272c806100616000396000f3fe608060405234801561001057600080fd5b50600436106101165760003560e01c80638ab66a90116100a2578063a738896711610071578063a738896714610334578063b28d92ae14610352578063b9be315214610370578063c91ec7121461038e578063f7522a83146103aa57610116565b80638ab66a90146102735780638e945685146102a95780638fb4cd80146102c7578063a3ec138d146102fd57610116565b806343242daa116100e957806343242daa146101bb5780635cc48aa7146101eb5780635f74bbde1461020957806370218b85146102255780637831ffb31461024357610116565b80630361419e1461011b57806305ad45a4146101375780632a466ac7146101555780633a88251a1461018b575b600080fd5b61013560048036038101906101309190611ad9565b6103c8565b005b61013f61059f565b60405161014c9190611bad565b60405180910390f35b61016f600480360381019061016a9190611bc8565b6105ac565b6040516101829796959493929190611c83565b60405180910390f35b6101a560048036038101906101a09190611d3a565b6109f3565b6040516101b29190611d67565b60405180910390f35b6101d560048036038101906101d09190611d3a565b610a32565b6040516101e29190611d67565b60405180910390f35b6101f3610a71565b6040516102009190611d67565b60405180910390f35b610223600480360381019061021e9190611d82565b610a97565b005b61022d610c5e565b60405161023a9190611e80565b60405180910390f35b61025d60048036038101906102589190611d3a565b610cec565b60405161026a9190611d67565b60405180910390f35b61028d60048036038101906102889190611bc8565b610d2b565b6040516102a09796959493929190611ea2565b60405180910390f35b6102b1610fad565b6040516102be9190611e80565b60405180910390f35b6102e160048036038101906102dc9190611bc8565b61103b565b6040516102f49796959493929190611f48565b60405180910390f35b61031760048036038101906103129190611bc8565b611402565b60405161032b989796959493929190611fcc565b60405180910390f35b61033c61160f565b6040516103499190611bad565b60405180910390f35b61035a61161b565b6040516103679190611e80565b60405180910390f35b6103786116a9565b6040516103859190611bad565b60405180910390f35b6103a860048036038101906103a3919061205f565b6116b5565b005b6103b26118f0565b6040516103bf9190611bad565b60405180910390f35b6103d260006118fd565b60006103de6000611913565b90506000600760008773ffffffffffffffffffffffffffffffffffffffff1673ffffffffffffffffffffffffffffffffffffffff1681526020019081526020016000209050600181600401819055508481600101908161043e9190612356565b50838160020190816104509190612356565b50858160030160006101000a81548173ffffffffffffffffffffffffffffffffffffffff021916908373ffffffffffffffffffffffffffffffffffffffff1602179055508181600001819055506103e8816006018190555060008160050160006101000a81548160ff021916908315150217905550828160070190816104d69190612356565b506006869080600181540180825580915050600190039060005260206000200160009091909190916101000a81548173ffffffffffffffffffffffffffffffffffffffff021916908373ffffffffffffffffffffffffffffffffffffffff160217905550817f0d1b980df89c1a3954567752ee1e92bdf546b205af1cc94b471ae6e71b8f859c86868985600401548660050160009054906101000a900460ff1687600601548a60405161058f9796959493929190612428565b60405180910390a2505050505050565b6000600680549050905090565b60608060006060600060606000600460008973ffffffffffffffffffffffffffffffffffffffff1673ffffffffffffffffffffffffffffffffffffffff168152602001908152602001600020600101600460008a73ffffffffffffffffffffffffffffffffffffffff1673ffffffffffffffffffffffffffffffffffffffff168152602001908152602001600020600201600460008b73ffffffffffffffffffffffffffffffffffffffff1673ffffffffffffffffffffffffffffffffffffffff16815260200190815260200160002060000154600460008c73ffffffffffffffffffffffffffffffffffffffff1673ffffffffffffffffffffffffffffffffffffffff168152602001908152602001600020600301600460008d73ffffffffffffffffffffffffffffffffffffffff1673ffffffffffffffffffffffffffffffffffffffff16815260200190815260200160002060040154600460008e73ffffffffffffffffffffffffffffffffffffffff1673ffffffffffffffffffffffffffffffffffffffff168152602001908152602001600020600601600460008f73ffffffffffffffffffffffffffffffffffffffff1673ffffffffffffffffffffffffffffffffffffffff16815260200190815260200160002060050160009054906101000a900473ffffffffffffffffffffffffffffffffffffffff168680546107b690612179565b80601f01602080910402602001604051908101604052809291908181526020018280546107e290612179565b801561082f5780601f106108045761010080835404028352916020019161082f565b820191906000526020600020905b81548152906001019060200180831161081257829003601f168201915b5050505050965085805461084290612179565b80601f016020809104026020016040519081016040528092919081815260200182805461086e90612179565b80156108bb5780601f10610890576101008083540402835291602001916108bb565b820191906000526020600020905b81548152906001019060200180831161089e57829003601f168201915b505050505095508380546108ce90612179565b80601f01602080910402602001604051908101604052809291908181526020018280546108fa90612179565b80156109475780601f1061091c57610100808354040283529160200191610947565b820191906000526020600020905b81548152906001019060200180831161092a57829003601f168201915b5050505050935081805461095a90612179565b80601f016020809104026020016040519081016040528092919081815260200182805461098690612179565b80156109d35780601f106109a8576101008083540402835291602001916109d3565b820191906000526020600020905b8154815290600101906020018083116109b657829003601f168201915b505050505091509650965096509650965096509650919395979092949650565b60038181548110610a0357600080fd5b906000526020600020016000915054906101000a900473ffffffffffffffffffffffffffffffffffffffff1681565b60068181548110610a4257600080fd5b906000526020600020016000915054906101000a900473ffffffffffffffffffffffffffffffffffffffff1681565b600260009054906101000a900473ffffffffffffffffffffffffffffffffffffffff1681565b6000600760003373ffffffffffffffffffffffffffffffffffffffff1673ffffffffffffffffffffffffffffffffffffffff16815260200190815260200160002090508060050160009054906101000a900460ff1615610b2c576040517f08c379a0000000000000000000000000000000000000000000000000000000008152600401610b23906124f8565b60405180910390fd5b6000816004015403610b73576040517f08c379a0000000000000000000000000000000000000000000000000000000008152600401610b6a90612564565b60405180910390fd5b60018160050160006101000a81548160ff0219169083151502179055508181600601819055506005339080600181540180825580915050600190039060005260206000200160009091909190916101000a81548173ffffffffffffffffffffffffffffffffffffffff021916908373ffffffffffffffffffffffffffffffffffffffff1602179055508060040154600460008573ffffffffffffffffffffffffffffffffffffffff1673ffffffffffffffffffffffffffffffffffffffff1681526020019081526020016000206004016000828254610c5291906125b3565b92505081905550505050565b60606003805480602002602001604051908101604052809291908181526020018280548015610ce257602002820191906000526020600020905b8160009054906101000a900473ffffffffffffffffffffffffffffffffffffffff1673ffffffffffffffffffffffffffffffffffffffff1681526020019060010190808311610c98575b5050505050905090565b60058181548110610cfc57600080fd5b906000526020600020016000915054906101000a900473ffffffffffffffffffffffffffffffffffffffff1681565b6004602052806000526040600020600091509050806000015490806001018054610d5490612179565b80601f0160208091040260200160405190810160405280929190818152602001828054610d8090612179565b8015610dcd5780601f10610da257610100808354040283529160200191610dcd565b820191906000526020600020905b815481529060010190602001808311610db057829003601f168201915b505050505090806002018054610de290612179565b80601f0160208091040260200160405190810160405280929190818152602001828054610e0e90612179565b8015610e5b5780601f10610e3057610100808354040283529160200191610e5b565b820191906000526020600020905b815481529060010190602001808311610e3e57829003601f168201915b505050505090806003018054610e7090612179565b80601f0160208091040260200160405190810160405280929190818152602001828054610e9c90612179565b8015610ee95780601f10610ebe57610100808354040283529160200191610ee9565b820191906000526020600020905b815481529060010190602001808311610ecc57829003601f168201915b5050505050908060040154908060050160009054906101000a900473ffffffffffffffffffffffffffffffffffffffff1690806006018054610f2a90612179565b80601f0160208091040260200160405190810160405280929190818152602001828054610f5690612179565b8015610fa35780601f10610f7857610100808354040283529160200191610fa3565b820191906000526020600020905b815481529060010190602001808311610f8657829003601f168201915b5050505050905087565b6060600580548060200260200160405190810160405280929190818152602001828054801561103157602002820191906000526020600020905b8160009054906101000a900473ffffffffffffffffffffffffffffffffffffffff1673ffffffffffffffffffffffffffffffffffffffff1681526020019060010190808311610fe7575b5050505050905090565b6000806060806000806060600760008973ffffffffffffffffffffffffffffffffffffffff1673ffffffffffffffffffffffffffffffffffffffff16815260200190815260200160002060000154600760008a73ffffffffffffffffffffffffffffffffffffffff1673ffffffffffffffffffffffffffffffffffffffff16815260200190815260200160002060040154600760008b73ffffffffffffffffffffffffffffffffffffffff1673ffffffffffffffffffffffffffffffffffffffff168152602001908152602001600020600101600760008c73ffffffffffffffffffffffffffffffffffffffff1673ffffffffffffffffffffffffffffffffffffffff168152602001908152602001600020600201600760008d73ffffffffffffffffffffffffffffffffffffffff1673ffffffffffffffffffffffffffffffffffffffff16815260200190815260200160002060030160009054906101000a900473ffffffffffffffffffffffffffffffffffffffff16600760008e73ffffffffffffffffffffffffffffffffffffffff1673ffffffffffffffffffffffffffffffffffffffff16815260200190815260200160002060050160009054906101000a900460ff16600760008f73ffffffffffffffffffffffffffffffffffffffff1673ffffffffffffffffffffffffffffffffffffffff16815260200190815260200160002060070184805461125190612179565b80601f016020809104026020016040519081016040528092919081815260200182805461127d90612179565b80156112ca5780601f1061129f576101008083540402835291602001916112ca565b820191906000526020600020905b8154815290600101906020018083116112ad57829003601f168201915b505050505094508380546112dd90612179565b80601f016020809104026020016040519081016040528092919081815260200182805461130990612179565b80156113565780601f1061132b57610100808354040283529160200191611356565b820191906000526020600020905b81548152906001019060200180831161133957829003601f168201915b5050505050935080805461136990612179565b80601f016020809104026020016040519081016040528092919081815260200182805461139590612179565b80156113e25780601f106113b7576101008083540402835291602001916113e2565b820191906000526020600020905b8154815290600101906020018083116113c557829003601f168201915b505050505090509650965096509650965096509650919395979092949650565b600760205280600052604060002060009150905080600001549080600101805461142b90612179565b80601f016020809104026020016040519081016040528092919081815260200182805461145790612179565b80156114a45780601f10611479576101008083540402835291602001916114a4565b820191906000526020600020905b81548152906001019060200180831161148757829003601f168201915b5050505050908060020180546114b990612179565b80601f01602080910402602001604051908101604052809291908181526020018280546114e590612179565b80156115325780601f1061150757610100808354040283529160200191611532565b820191906000526020600020905b81548152906001019060200180831161151557829003601f168201915b5050505050908060030160009054906101000a900473ffffffffffffffffffffffffffffffffffffffff16908060040154908060050160009054906101000a900460ff169080600601549080600701805461158c90612179565b80601f01602080910402602001604051908101604052809291908181526020018280546115b890612179565b80156116055780601f106115da57610100808354040283529160200191611605565b820191906000526020600020905b8154815290600101906020018083116115e857829003601f168201915b5050505050905088565b60018060000154905081565b6060600680548060200260200160405190810160405280929190818152602001828054801561169f57602002820191906000526020600020905b8160009054906101000a900473ffffffffffffffffffffffffffffffffffffffff1673ffffffffffffffffffffffffffffffffffffffff1681526020019060010190808311611655575b5050505050905090565b60008060000154905081565b3373ffffffffffffffffffffffffffffffffffffffff16600260009054906101000a900473ffffffffffffffffffffffffffffffffffffffff1673ffffffffffffffffffffffffffffffffffffffff1614611745576040517f08c379a000000000000000000000000000000000000000000000000000000000815260040161173c90612659565b60405180910390fd5b61174f60016118fd565b600061175b6001611913565b90506000600460008873ffffffffffffffffffffffffffffffffffffffff1673ffffffffffffffffffffffffffffffffffffffff1681526020019081526020016000209050868160050160006101000a81548173ffffffffffffffffffffffffffffffffffffffff021916908373ffffffffffffffffffffffffffffffffffffffff160217905550858160010190816117f49190612356565b50848160020190816118069190612356565b50818160000181905550838160030190816118219190612356565b50600081600401819055508281600601908161183d9190612356565b506003879080600181540180825580915050600190039060005260206000200160009091909190916101000a81548173ffffffffffffffffffffffffffffffffffffffff021916908373ffffffffffffffffffffffffffffffffffffffff160217905550817ffb888ce8fc26034ca4f3c3c11577f80367a73cff9cc15d9a30a3b5211505b4ea888888888660040154896040516118df96959493929190612679565b60405180910390a250505050505050565b6000600380549050905090565b6001816000016000828254019250508190555050565b600081600001549050919050565b6000604051905090565b600080fd5b600080fd5b600073ffffffffffffffffffffffffffffffffffffffff82169050919050565b600061196082611935565b9050919050565b61197081611955565b811461197b57600080fd5b50565b60008135905061198d81611967565b92915050565b600080fd5b600080fd5b6000601f19601f8301169050919050565b7f4e487b7100000000000000000000000000000000000000000000000000000000600052604160045260246000fd5b6119e68261199d565b810181811067ffffffffffffffff82111715611a0557611a046119ae565b5b80604052505050565b6000611a18611921565b9050611a2482826119dd565b919050565b600067ffffffffffffffff821115611a4457611a436119ae565b5b611a4d8261199d565b9050602081019050919050565b82818337600083830152505050565b6000611a7c611a7784611a29565b611a0e565b905082815260208101848484011115611a9857611a97611998565b5b611aa3848285611a5a565b509392505050565b600082601f830112611ac057611abf611993565b5b8135611ad0848260208601611a69565b91505092915050565b60008060008060808587031215611af357611af261192b565b5b6000611b018782880161197e565b945050602085013567ffffffffffffffff811115611b2257611b21611930565b5b611b2e87828801611aab565b935050604085013567ffffffffffffffff811115611b4f57611b4e611930565b5b611b5b87828801611aab565b925050606085013567ffffffffffffffff811115611b7c57611b7b611930565b5b611b8887828801611aab565b91505092959194509250565b6000819050919050565b611ba781611b94565b82525050565b6000602082019050611bc26000830184611b9e565b92915050565b600060208284031215611bde57611bdd61192b565b5b6000611bec8482850161197e565b91505092915050565b600081519050919050565b600082825260208201905092915050565b60005b83811015611c2f578082015181840152602081019050611c14565b60008484015250505050565b6000611c4682611bf5565b611c508185611c00565b9350611c60818560208601611c11565b611c698161199d565b840191505092915050565b611c7d81611955565b82525050565b600060e0820190508181036000830152611c9d818a611c3b565b90508181036020830152611cb18189611c3b565b9050611cc06040830188611b9e565b8181036060830152611cd28187611c3b565b9050611ce16080830186611b9e565b81810360a0830152611cf38185611c3b565b9050611d0260c0830184611c74565b98975050505050505050565b611d1781611b94565b8114611d2257600080fd5b50565b600081359050611d3481611d0e565b92915050565b600060208284031215611d5057611d4f61192b565b5b6000611d5e84828501611d25565b91505092915050565b6000602082019050611d7c6000830184611c74565b92915050565b60008060408385031215611d9957611d9861192b565b5b6000611da78582860161197e565b9250506020611db885828601611d25565b9150509250929050565b600081519050919050565b600082825260208201905092915050565b6000819050602082019050919050565b611df781611955565b82525050565b6000611e098383611dee565b60208301905092915050565b6000602082019050919050565b6000611e2d82611dc2565b611e378185611dcd565b9350611e4283611dde565b8060005b83811015611e73578151611e5a8882611dfd565b9750611e6583611e15565b925050600181019050611e46565b5085935050505092915050565b60006020820190508181036000830152611e9a8184611e22565b905092915050565b600060e082019050611eb7600083018a611b9e565b8181036020830152611ec98189611c3b565b90508181036040830152611edd8188611c3b565b90508181036060830152611ef18187611c3b565b9050611f006080830186611b9e565b611f0d60a0830185611c74565b81810360c0830152611f1f8184611c3b565b905098975050505050505050565b60008115159050919050565b611f4281611f2d565b82525050565b600060e082019050611f5d600083018a611b9e565b611f6a6020830189611b9e565b8181036040830152611f7c8188611c3b565b90508181036060830152611f908187611c3b565b9050611f9f6080830186611c74565b611fac60a0830185611f39565b81810360c0830152611fbe8184611c3b565b905098975050505050505050565b600061010082019050611fe2600083018b611b9e565b8181036020830152611ff4818a611c3b565b905081810360408301526120088189611c3b565b90506120176060830188611c74565b6120246080830187611b9e565b61203160a0830186611f39565b61203e60c0830185611b9e565b81810360e08301526120508184611c3b565b90509998505050505050505050565b600080600080600060a0868803121561207b5761207a61192b565b5b60006120898882890161197e565b955050602086013567ffffffffffffffff8111156120aa576120a9611930565b5b6120b688828901611aab565b945050604086013567ffffffffffffffff8111156120d7576120d6611930565b5b6120e388828901611aab565b935050606086013567ffffffffffffffff81111561210457612103611930565b5b61211088828901611aab565b925050608086013567ffffffffffffffff81111561213157612130611930565b5b61213d88828901611aab565b9150509295509295909350565b7f4e487b7100000000000000000000000000000000000000000000000000000000600052602260045260246000fd5b6000600282049050600182168061219157607f821691505b6020821081036121a4576121a361214a565b5b50919050565b60008190508160005260206000209050919050565b60006020601f8301049050919050565b600082821b905092915050565b60006008830261220c7fffffffffffffffffffffffffffffffffffffffffffffffffffffffffffffffff826121cf565b61221686836121cf565b95508019841693508086168417925050509392505050565b6000819050919050565b600061225361224e61224984611b94565b61222e565b611b94565b9050919050565b6000819050919050565b61226d83612238565b6122816122798261225a565b8484546121dc565b825550505050565b600090565b612296612289565b6122a1818484612264565b505050565b5b818110156122c5576122ba60008261228e565b6001810190506122a7565b5050565b601f82111561230a576122db816121aa565b6122e4846121bf565b810160208510156122f3578190505b6123076122ff856121bf565b8301826122a6565b50505b505050565b600082821c905092915050565b600061232d6000198460080261230f565b1980831691505092915050565b6000612346838361231c565b9150826002028217905092915050565b61235f82611bf5565b67ffffffffffffffff811115612378576123776119ae565b5b6123828254612179565b61238d8282856122c9565b600060209050601f8311600181146123c057600084156123ae578287015190505b6123b8858261233a565b865550612420565b601f1984166123ce866121aa565b60005b828110156123f6578489015182556001820191506020850194506020810190506123d1565b86831015612413578489015161240f601f89168261231c565b8355505b6001600288020188555050505b505050505050565b600060e0820190508181036000830152612442818a611c3b565b905081810360208301526124568189611c3b565b90506124656040830188611c74565b6124726060830187611b9e565b61247f6080830186611f39565b61248c60a0830185611b9e565b81810360c083015261249e8184611c3b565b905098975050505050505050565b7f596f75206861766520616c726561647920766f74656400000000000000000000600082015250565b60006124e2601683611c00565b91506124ed826124ac565b602082019050919050565b60006020820190508181036000830152612511816124d5565b9050919050565b7f596f752068617665206e6f20726967687420746f20766f746500000000000000600082015250565b600061254e601983611c00565b915061255982612518565b602082019050919050565b6000602082019050818103600083015261257d81612541565b9050919050565b7f4e487b7100000000000000000000000000000000000000000000000000000000600052601160045260246000fd5b60006125be82611b94565b91506125c983611b94565b92508282019050808211156125e1576125e0612584565b5b92915050565b7f4f6e6c79204f7267616e697a65722063616e20617574686f72697a652063616e60008201527f6469646174652000000000000000000000000000000000000000000000000000602082015250565b6000612643602783611c00565b915061264e826125e7565b604082019050919050565b6000602082019050818103600083015261267281612636565b9050919050565b600060c08201905061268e6000830189611c74565b81810360208301526126a08188611c3b565b905081810360408301526126b48187611c3b565b905081810360608301526126c88186611c3b565b90506126d76080830185611b9e565b81810360a08301526126e98184611c3b565b905097965050505050505056fea264697066735822122081f98ec2678aa1b52b33d6c82731e9aa7122ca6b16b2fe6658b7326749425e5764736f6c63430008120033",
  "linkReferences": {},
  "deployedLinkReferences": {}
}